:100000009DC162C486C4B5C1B4C1B3C1B2C1B1C1DE
:10001000B0C1AFC1AEC1ADC1ACC1ABC1AAC1A9C174
:10002000A8C1A7C1A6C1A5C1A4C199C3C5C3C6C360
:10003000D4C3EEC3EFC3F1C3FDC318C43E51494559
:100040003E00000000427F40000000004261514934
:10005000460000002141454B310000001814127F7A
:100060001000000027454545390000003C4A494939
:1000700030000000017109050300000036494949BC
:1000800036000000064949291E0000007E111111AA
:100090007E0000007F494949360000003E41414151
:1000A000220000007F4141413E0000007F49494954
:1000B000410000007F090909010000003E41494953
:1000C0007A0000007F0808087F00000000417F419F
:1000D000000000002040413F010000007F08142282
:1000E000410000007F404040400000007F020C02C1
:1000F0007F0000007F0408107F0000003E41414166
:100100003E0000007F090909060000003E41512120
:100110005E0000007F091929460000004649494950
:100120003100000001017F01010000003F4040401C
:100130003F0000001F2040201F0000003F403840CB
:100140003F000000631408146300000007087008F3
:10015000070000006151494543000000808C98A4CD
:10016000AFB9C3CBD2D8DCDFE0DFDCD8D2CBC3B9A8
:10017000AFA4988C8074685C51473D352E282421AB
:10018000202124282E353D47515C68740204020466
:100190000204FE07020402040204000030004800CA
:1001A00084000401080208040802040184004800D5
:1001B0003000000000003000480084000401080204
:1001C0000804080204018400480030000000000018
:1001D00030007800FC00FC01F803F807F803FC018C
:1001E000FC00780030000000FE030004000400045E
:1001F000000400040004FE03020402040204FE07DB
:1002000002040204020400003000480084000401DB
:1002100008020804080204018400480030000000BD
:10022000000030007800FC00FC01F803F807F80338
:10023000FC01FC00780030000000000030004800A5
:100240008400040108020804080204018400480034
:1002500030000000FE030004000400040004000459
:100260000004FE03020402040204FE070204020466
:100270000204000030007800FC00FC01F803F807DD
:10028000F803FC01FC0078003000000000003000A2
:1002900048008400040108020804080204018400E4
:1002A00048003000000000003000480084000401D5
:1002B000080208040802040184004800300000001D
:1002C000FE03000400040004000400040004FE0314
:1002D000020402040204FE070204020402040000F5
:1002E00030004800840004010802080408020401E8
:1002F0008400480030000000000030004800840006
:1003000004010802080408020401840048003000C7
:1003100000000000300048008400040108020804C6
:10032000080204018400480030000000FE030004BD
:1003300000040004000400040004FE0311241FBE96
:10034000CFE5D1E0DEBFCDBF10E0A0E6B0E0EAEA45
:10035000FDE002C005900D92A038B107D9F720E06A
:10036000A0E8B0E001C01D92A739B207E1F770D351
:100370001AC546CE8A31910538F0469796958795ED
:10038000969587950197F1F708958EB582608EBD99
:100390001DBC1CBC089593FF02C0909A01C09098A8
:1003A00092FF02C0919A01C0919891FF02C0949A65
:1003B00001C0949890FF02C0959A01C0959887FF5C
:1003C00002C0969A01C0969886FF02C0C09A01C0EA
:1003D000C09885FF02C0C19A01C0C19884FF02C0C5
:1003E000C29A01C0C29883FF02C0C39A01C0C398D9
:1003F00082FF02C0C49A01C0C49881FF02C0D89A8B
:1004000001C0D89880FF02C0D99A0895D99808955C
:100410000F931F93CF93DF93C82FD0E083E0CC0FCF
:10042000DD1F8A95E1F700E010E0F801EC0FFD1FF9
:10043000E45CFF4F849190E0AEDF80918900909161
:100440008A00A0918B00B0918C0094DF0F5F1F4F4A
:100450000830110551F7DF91CF911F910F91089549
:1004600090ED980F9A3010F4892F05C09FEB980FEC
:100470009A3110F48753CCCF803221F486EA8A95E2
:10048000F1F700C00895CF93DF93EC0189918823A1
:1004900059F0E6DF8091890090918A00A0918B004D
:1004A000B0918C0067DFF2CFDF91CF9108950F9369
:1004B0001F93CF93DF93EC0168EE73E09DD3062F7B
:1004C000862FA6DF8091890090918A00A0918B00F1
:1004D000B0918C004FDFCE0164E670E08DD3162F13
:1004E000802F6AE063D3912F981B892F91DF809131
:1004F000890090918A00A0918B00B0918C003ADF26
:10050000CE016AE070E078D3962FC82F812F6AE081
:100510004DD3981B892F7CDF8091890090918A00B0
:10052000A0918B00B0918C0025DF8C2F71DF809122
:10053000890090918A00A0918B00B0918C00DF918E
:10054000CF911F910F9116CF0F931F93CF93DF93EE
:10055000D62F8C01C0E0CD1789F0F80185919491D8
:100560001ADF8091890090918A00A0918B00B09150
:100570008C0000DFCF5F0E5F1F4FEDCFDF91CF917B
:100580001F910F910895AF92BF92CF92DF92EF9299
:10059000FF920F931F93CF93DF93A82EFAEFBF2EF6
:1005A000A0E3EA2EF12CCC24C394D12C829B58C01A
:1005B000C0E0D0E000E010E08091800090918100E8
:1005C0008C0F9D1FB7012CD3FC01E45AFE4FE49120
:1005D000E13850F1C6010C2E02C0880F991F0A9411
:1005E000E2F7082B192BAA20F9F0C801D4DE20E08D
:1005F00030E08091890090918A00A0918B00B091A9
:100600008C00A90160E070E0E2E0B695A7959795AF
:100610008795EA95D1F7481759076A077B0720F4B1
:1006200000002F5F3F4FE5CF2196CC30D10521F65A
:10063000A11002C0C801AFDE8091800090918100BE
:100640000196803391052CF4909381008093800073
:1006500004C01092810010928000BA94B110A6CF0D
:10066000DF91CF911F910F91FF90EF90DF90CF908E
:10067000BF90AF900895479A319A8AB383608ABB3E
:1006800087B38F6387BB81B3836781BBC59A929A17
:100690008BB7806C8BBF85B7886085BF85B78B7F34
:1006A00085BF789472DE85B7806585BF0895CF9247
:1006B000DF92EF92FF920F931F93CF93DF930CEF94
:1006C00011E0EE24E394F12CCC24CA94DC2C829B20
:1006D0002DC0C0916600D0916700CE015CDE809194
:1006E000640090916500019771F4CE018827907E97
:1006F0008115904E29F4D0926500C092640013C019
:10070000CC0FDD1F0CC0CE0187709927079729F405
:10071000F0926500E092640006C0D695C795D0932C
:100720006700C09366000150110989F6DF91CF91EF
:100730001F910F91FF90EF90DF90CF9008950F934E
:100740001F93CF93DF93E0916C008E2F90E0893060
:10075000910508F0ACC0FC01EB5EFF4F09948DE6FB
:1007600090E091DE8091910090919200A0DE8091C6
:10077000890090918A00A0918B00B0918C00FADDE5
:100780008091890090918A00A0918B00B0918C009B
:10079000F1DD8091890090918A00A0918B00B09149
:1007A0008C00E8DD8091890090918A00A0918B00F7
:1007B000B0918C007CDE81C080E02DC081E790E0AC
:1007C00062DE8091890090918A00A0918B00B091A7
:1007D0008C0064E670E0F3D1CDDD8091840081303F
:1007E00071F048F0823079F0833009F066C066E33A
:1007F0008CE891E00BC066E380ED92E007C066E311
:1008000084E692E003C066E388EF91E09DDE55C088
:100810004EDF53C081E0B7DE50C0C0E080D2BBDD08
:10082000809182008111CBE9829B47C0CF5FCA399A
:10083000A8F343C0C0E0D0E08CB59DB5ACDD80919D
:10084000890090918A00A0918B00B0918C0092DD7C
:1008500080918200882311F0C8EED3E0829B2DC0E6
:100860002196C83E83E0D80738F327C0C0E0D0E027
:1008700004E610E08CB59DB5B801BED1CB018BDD8F
:100880008091890090918A00A0918B00B0918C009A
:1008900071DD80918200882311F0C8EED3E0829B45
:1008A0000CC02196C83E83E0D80720F306C0789498
:1008B000C59881E080938300889580E090E0DF9187
:1008C000CF911F910F9167CD1F920F920FB60F928C
:1008D00011248F939F93AF93BF9385B78F7D85BF6F
:1008E00080E593ECA0E0B0E080936800909369000D
:1008F000A0936A00B0936B00C59A85B7806285BFEC
:10090000BF91AF919F918F910F900FBE0F901F904D
:1009100018951F920F920FB60F9211240F931F93E9
:100920002F933F934F935F936F937F938F939F93F7
:10093000AF93BF93CF93DF93EF93FF9385B78F7DF3
:1009400085BF80E593ECA0E0B0E0809368009093D1
:100950006900A0936A00B0936B00CCB5DDB5D0936D
:100960009600C0939500809193009091940080919F
:100970009300909194008E01081B190BC8016CE044
:1009800070E03AD1CB01A0E0B0E080938D0090936D
:100990008E00A0938F00B093900080918D00909175
:1009A0008E00A0918F00B091900022E0B695A7959F
:1009B000979587952A95D1F78093890090938A001F
:1009C000A0938B00B0938C0020918D0030918E000D
:1009D00040918F005091900060EC77E289E090E0C8
:1009E00032D1309392002093910081E08093820075
:1009F000D0939400C09393008091850090918600DD
:100A0000A0918700B0918800800F911FA11DB11D9A
:100A10008093850090938600A0938700B093880010
:100A200085B7806285BFFF91EF91DF91CF91BF9134
:100A3000AF919F918F917F916F915F914F913F9176
:100A40002F911F910F910F900FBE0F901F9018952F
:100A500012DE80E090E09FDCC0E0D9E003E010E02F
:100A600080E5C82E83ECD82EE12CF12CBB24B39466
:100A7000789480918300811126C0829935C080913D
:100A80006C008F5F80936C0080916C006D2FA8D0FC
:100A900090936C0080916C00980102C0220F331F6C
:100AA0008A95E2F7C90177DC3FE58AEE90E03150A4
:100AB00080409040E1F700C0000080E090E06BDCF7
:100AC000829BDDCF11C08FEF9FE065DC1092830029
:100AD0002FE53AEE80E0215030408040E1F700C041
:100AE000000080E090E057DC809168009091690000
:100AF000A0916A00B0916B00AC01BD014150510959
:100B000061097109409368005093690060936A001D
:100B100070936B00892B8A2B8B2BD9F485B780625D
:100B200085BF8AEA90E037DCC59883ED90E30197B2
:100B3000F1F700C00000C0926800D0926900E09216
:100B40006A00F0926B00B092830080E090E023DCBA
:100B500088958091680090916900A0916A00B09199
:100B60006B008135934CA105B10540F0C09268003F
:100B7000D0926900E0926A00F0926B00809182004E
:100B8000882309F475CF10928200D9DDCA3061F450
:100B9000809184008F5F80938400809184008430F2
:100BA00011F410928400C0E0CF5F62CF002480FD7A
:100BB000060E660F11F08695D1F7802D089500245A
:100BC000552704C0080E591F880F991F009729F058
:100BD00076956795B8F37105B9F7802D952F08952F
:100BE000991B79E004C0991F961708F0961B881F7F
:100BF0007A95C9F780950895AA1BBB1B51E107C0E0
:100C0000AA1FBB1FA617B70710F0A61BB70B881F9C
:100C1000991F5A95A9F780959095BC01CD0108952B
:100C200097FB072E16F4009406D077FD08D0E4DF7A
:100C300007FC05D03EF4909581959F4F08957095DF
:100C400061957F4F0895A1E21A2EAA1BBB1BFD01DF
:100C50000DC0AA1FBB1FEE1FFF1FA217B307E4079B
:100C6000F50720F0A21BB30BE40BF50B661F771FF3
:100C7000881F991F1A9469F76095709580959095D3
:100C80009B01AC01BD01CF0108958F929F92AF925D
:100C9000BF92CF92DF92EF92FF92CF93DF93EC015E
:100CA000688179818A819B81611571058105910532
:100CB00021F464E279ED8BE597E02DE133EF41E03B
:100CC00050E055D049015A0127EA31E440E050E0B4
:100CD00035D06B017C012CEE34EF4FEF5FEFC50197
:100CE000B4012CD0DC01CB018C0D9D1DAE1DBF1DB0
:100CF000B7FF03C00197A109B04888839983AA83ED
:100D0000BB839F77DF91CF91FF90EF90DF90CF90E3
:100D1000BF90AF909F908F900895B7DF089580E6C1
:100D200090E0B3DF0895A0E0B0E08093600090937E
:100D30006100A0936200B09363000895EE27FF273F
:100D4000AA27BB2708C0A20FB31FE41FF51F220F5D
:100D5000331F441F551F969587957795679598F390
:100D60007040A9F7009799F7BD01CF010895052EAE
:100D700097FB16F400940FD057FD05D064DF07FCF5
:100D800002D046F408C050954095309521953F4FCC
:100D90004F4F5F4F089590958095709561957F4F67
:0A0DA0008F4F9F4F0895F894FFCF86
:100DAA00010000000100070050C300000752504D27
:100DBA000048415050592042495254484441590030
:00000001FF
