:1000000010C12CC469C428C127C126C125C124C17F
:1000100023C122C121C1B4C31FC187C31DC11CC1DB
:100020001BC11AC119C1D4C3F6C3808C98A4AFB93F
:10003000C3CBD2D8DCDFE0DFDCD8D2CBC3B9AFA4EE
:10004000988C8074685C51473D352E2824212021EE
:1000500024282E353D47515C687402040204FE07D3
:10006000020402040204000030004800840004017D
:10007000080208040802040184004800300000005F
:10008000000030004800840004010802080408024F
:1000900004018400480030000000C0033E04000456
:1000A000000400040004000400043E04C003020431
:1000B0000204FE070204020402040000300078007B
:1000C000FC00FC01F803F807F803FC01FC007800D1
:1000D00030000000000030007800FC00FC01F80354
:1000E000F807F803FC01FC00780030000000C003B2
:1000F0003E040004000400040004000400043E0464
:10010000C0033E5149453E00000000427F400000D0
:10011000000042615149460000002141454B310039
:1001200000001814127F10000000274545453900D3
:1001300000003C4A494930000000017109050300F4
:1001400000003649494936000000064949291E0089
:1001500000007E1111116E0000007F4949493600F0
:1001600000003E414141220000007F4141413E00EC
:1001700000007F494949410000007F090909010049
:1001800000003E4149497A0000007F0808087F00CE
:10019000000000417F41000000002040413F01007D
:1001A00000007F081422410000007F4040404000D2
:1001B00000007F020C027F0000007F0408107F0017
:1001C00000003E4141413E0000007F090909060050
:1001D00000003E4151215E0000007F0919294600C0
:1001E0000000464949493100000001017F0101003A
:1001F00000003F4040403F0000001F2040201F0003
:1002000000003F4038403F000000631408146300C2
:1002100000000708700807000000615149454300CD
:10022000000011241FBECFE5D1E0DEBFCDBF10E03E
:10023000A0E6B0E0E4EDFDE002C005900D92A2372B
:10024000B107D9F720E0A2E7B0E001C01D92AB38BA
:10025000B207E1F78AD3BCC5D3CE8A31910538F015
:10026000469796958795969587950197F1F7089506
:10027000F8948091770090917800A0917900B091E6
:100280007A0078941092770010927800109279009A
:1002900010927A000097A105B10591F09C01AD0183
:1002A00083E0220F331F441F551F8A95D1F760E06A
:1002B00077E883E993E06AD5CA01B9010ED40895BD
:1002C00060E070E0CB010895D3DF6093830070930A
:1002D00084008093850090938600609183007091E4
:1002E0008400809185009091860020E030E0A90193
:1002F0005CD38823F1F16091830070918400809138
:1003000085009091860020E030E040E752E451D330
:1003100060937F00709380008093810090938200AF
:1003200020917F00309180004091810050918200A7
:1003300060E074E284E799E43CD320E030E040EAF6
:1003400050E47DD420E030E044EB53E432D399D341
:1003500060937B0070937C0080937D0090937E007F
:1003600060917B0070917C0080917D0090917E0077
:10037000089564EF71E080E090E008958EB58260AA
:100380008EBD1DBC1CBC089593FF02C0909A01C095
:10039000909892FF02C0919A01C0919891FF02C07B
:1003A000949A01C0949890FF02C0959A01C09598C4
:1003B00087FF02C0969A01C0969886FF02C0C09A35
:1003C00001C0C09885FF02C0C19A01C0C19884FFD6
:1003D00002C0C29A01C0C29883FF02C0C39A01C082
:1003E000C39882FF02C0C49A01C0C49881FF02C0B2
:1003F000D89A01C0D89880FF02C0D99A0895D99898
:1004000008950F931F93CF93DF93C82FD0E033E06D
:10041000CC0FDD1F3A95E1F700E010E0F801EC0F9A
:10042000FD1FEE5FFE4F849190E0AEDF4DDF8091C7
:100430007B0090917C00A0917D00B0917E00B695EC
:10044000A7959795879509DF0F5F1F4F0830110516
:1004500029F7DF91CF911F910F91089590ED980F9B
:100460009A3010F4892F05C09FEB980F9A3110F441
:100470008753C7CF0895CF93DF93EC0189918823E9
:1004800081F0ECDF21DF80917B0090917C00A091D6
:100490007D00B0917E00B695A79597958795DDDE96
:1004A000EDCFDF91CF9108950F931F93CF93DF93FB
:1004B000EC0168EE73E043D4062F862FA2DF04DF41
:1004C00080917B0090917C00A0917D00B0917E0096
:1004D000B695A79597958795C0DECE0164E670E046
:1004E0002ED4162F802F6AE015D4912F981B892FB8
:1004F00088DFEADE80917B0090917C00A0917D00F6
:10050000B0917E00B695A79597958795A6DECE010A
:100510006AE070E014D4962FC82F812F6AE0FAD3D6
:10052000981B892F6EDFD0DE80917B0090917C003C
:10053000A0917D00B0917E00B695A795979587957F
:100540008CDE8C2F5EDFC0DE80917B0090917C0082
:10055000A0917D00B0917E00B695A795979587955F
:10056000DF91CF911F910F9178CE0F931F93CF936F
:10057000DF93D62F8C01C0E0CD17B1F0F801859143
:10058000949102DFA1DE80917B0090917C00A0918C
:100590007D00B0917E00B695A795979587955DDE15
:1005A000CF5F0E5F1F4FE8CFDF91CF911F910F916B
:1005B0000895BF92CF92DF92EF92FF920F931F9315
:1005C000CF93DF938AEFB82E00E310E0EE24E3949C
:1005D000F12CC0917200D091730020E030E0C12C6A
:1005E000D12CC9018C0F9D1FB801BDD3FC01E65D64
:1005F000FF4FE491E13848F0C701022E02C0880F96
:10060000991F0A94E2F7C82AD92A2F5F3F4F2C304E
:10061000310539F7C601B8DE2196C033D1052CF477
:10062000D0937300C093720004C0109273001092B4
:10063000720086EA8A95F1F700C0BA94B110C9CF6A
:10064000DF91CF911F910F91FF90EF90DF90CF90AE
:10065000BF9008958AB383608ABB87B38F6187BBDD
:1006600081B3836781BB929A85B7826085BF85B766
:10067000826085BF8BB780648BBF8BB780688BBF70
:1006800085B7886085BF85B78B7F85BF229A8BB77A
:1006900080618BBF73DE85B78F7A85BF78940895AC
:1006A00013DE80917B0090917C00A0917D00B09141
:1006B0007E00B695A79597958795CFDD80917500BB
:1006C000813009F140F0823001F1833051F583E649
:1006D00090E0D1DE27C0609183007091840080910A
:1006E000850090918600CDD1CB01DEDE80E690E0E2
:1006F000C2DE80917B0090917C00A0917D00B09142
:100700007E00D2DE0FC055DF0DC0809176006AE218
:10071000882319F08EEA90E002C08AE590E025DF98
:1007200001C0889580E090E02FCE1F920F920FB607
:100730000F9211242F933F934F935F936F937F9367
:100740008F939F93AF93BF93EF93FF936091830039
:10075000709184008091850090918600B5DDFF91B5
:10076000EF91BF91AF919F918F917F916F915F9129
:100770004F913F912F910F900FBE0F901F901895A2
:100780001F920F920FB60F9211242F933F934F9306
:100790005F936F937F938F939F93AF93BF93EF93E9
:1007A000FF9385B78F7D85BF8FEF90E0EDDDFF91E3
:1007B000EF91BF91AF919F918F917F916F915F91D9
:1007C0004F913F912F910F900FBE0F901F90189552
:1007D0001F920F920FB60F9211242F933F934F93B6
:1007E0005F936F937F938F939F93AF93BF93EF9399
:1007F000FF93C6DFFF91EF91BF91AF919F918F91D2
:100800007F916F915F914F913F912F910F900FBE0C
:100810000F901F9018951F920F920FB60F921124F0
:100820002F933F934F935F936F937F938F939F93F8
:10083000AF93BF93EF93FF93A3DFFF91EF91BF912E
:10084000AF919F918F917F916F915F914F913F9168
:100850002F910F900FBE0F901F9018951F920F921F
:100860000FB60F9211242F933F934F935F936F9383
:100870007F938F939F93AF93BF93EF93FF9385B72E
:100880008F7D85BF8FEF90E07FDD80B382FB99275E
:1008900090F981E0892780937400809175008F5FC3
:1008A00065E041D290937500892F90E001966CDD50
:1008B00080E090E069DDFF91EF91BF91AF919F9152
:1008C0008F917F916F915F914F913F912F910F90F9
:1008D0000FBE0F901F9018951F920F920FB60F9298
:1008E00011242F933F934F935F938F939F93AF93D5
:1008F000BF9385B78F7D85BF8CB59DB590938A00DA
:100900008093890020918700309188002091870092
:1009100030918800AC01421B530B90938800809368
:1009200087008091770090917800A0917900B09134
:100930007A00840F951FA11DB11D809377009093BD
:100940007800A0937900B0937A0085B7806285BF64
:10095000BF91AF919F918F915F914F913F912F9157
:100960000F900FBE0F901F90189574DE80E090E0FE
:100970000BDDC0E0D1E085B7806285BF88956091CE
:1009800083007091840080918500909186009CDCAA
:1009900087DE7894C23039F4809176009D2F981BC1
:1009A00090937600C0E0CF5FE6CFD4D008F481E02A
:1009B00008950CD00AC102D140F0F9D030F021F4F2
:1009C0005F3F19F0EBC0511134C1EEC00FD198F365
:1009D0009923C9F35523B1F3951B550BBB27AA27C0
:1009E00062177307840738F09F5F5F4F220F331F32
:1009F000441FAA1FA9F333D00E2E3AF0E0E830D0FE
:100A000091505040E695001CCAF729D0FE2F27D000
:100A1000660F771F881FBB1F261737074807AB07CE
:100A2000B0E809F0BB0B802DBF01FF2793585F4F43
:100A30002AF09E3F510568F0B1C0FBC05F3FECF368
:100A4000983EDCF3869577956795B795F7959F5F08
:100A5000C9F7880F911D9695879597F90895E1E05C
:100A6000660F771F881FBB1F621773078407BA07BB
:100A700020F0621B730B840BBA0BEE1F88F7E09516
:100A80000895BCD088F09F5790F0B92F9927B7519F
:100A9000A0F0D1F0660F771F881F991F1AF0BA9542
:100AA000C9F712C0B13081F0C3D0B1E00895C0C021
:100AB000672F782F8827B85F39F0B93FCCF3869538
:100AC00077956795B395D9F73EF490958095709595
:100AD00061957F4F8F4F9F4F0895E89409C097FB12
:100AE0003EF490958095709561957F4F8F4F9F4F05
:100AF0009923A9F0F92F96E9BB279395F695879549
:100B000077956795B795F111F8CFFAF4BB0F11F40B
:100B100060FF1BC06F5F7F4F8F4F9F4F16C08823B2
:100B200011F096E911C0772321F09EE8872F762FE8
:100B300005C0662371F096E8862F70E060E02AF029
:100B40009A95660F771F881FDAF7880F9695879515
:100B500097F90895990F0008550FAA0BE0E8FEEFEA
:100B600016161706E807F907C0F012161306E40771
:100B7000F50798F0621B730B840B950B39F40A266A
:100B800061F0232B242B252B21F408950A2609F448
:100B9000A140A6958FEF811D811D089597F99F674C
:100BA00080E870E060E008959FEF80EC08950024F5
:100BB0000A941616170618060906089500240A94C2
:100BC00012161306140605060895092E0394000C48
:100BD00011F4882352F0BB0F40F4BF2B11F460FFD7
:100BE00004C06F5F7F4F8F4F9F4F089557FD905800
:100BF000440F551F59F05F3F71F04795880F97FBE1
:100C0000991F61F09F3F79F087950895121613069A
:100C10001406551FF2CF4695F1DF08C016161706C9
:100C20001806991FF1CF86957105610508940895FE
:100C3000E894BB2766277727CB0197F908950AD058
:100C4000C4CFB5DF28F0BADF18F0952309F0A6CF9E
:100C5000ABCFEFCFCBDFA8F39923D9F35523C9F35B
:100C6000950F50E0551FAA27EE27FF27BB2700242A
:100C70000894679520F4E20FF31FB41F0A1E220F99
:100C8000331F441FAA1F6695A9F7779530F4F30F19
:100C9000B41F0A1E121E08F46395330F441FAA1FC7
:100CA000221F769599F7879520F4B40F0A1E121E1D
:100CB000631F440FAA1F221F331F8695A9F7862F93
:100CC000712D602D11249F5750408AF0E1F0882348
:100CD0004AF0EE0FFF1FBB1F661F771F881F915042
:100CE0005040A9F79E3F510570F058CFA2CF5F3F0B
:100CF000ECF3983EDCF3869577956795B795F79575
:100D0000E7959F5FC1F7FE2B880F911D96958795FC
:100D100097F90895002480FD060E660F11F0869560
:100D2000D1F7802D0895991B79E004C0991F96177B
:100D300008F0961B881F7A95C9F780950895AA1B1D
:100D4000BB1B51E107C0AA1FBB1FA617B70710F0B6
:100D5000A61BB70B881F991F5A95A9F780959095E8
:100D6000BC01CD01089597FB072E16F4009406D020
:100D700077FD08D0E4DF07FC05D03EF4909581951F
:100D80009F4F0895709561957F4F0895A1E21A2EA7
:100D9000AA1BBB1BFD010DC0AA1FBB1FEE1FFF1F1F
:100DA000A217B307E407F50720F0A21BB30BE40B6F
:100DB000F50B661F771F881F991F1A9469F76095B6
:100DC0007095809590959B01AC01BD01CF01089570
:040DD000F894FFCFC5
:100DD400202000484150505920424952544844412F
:020DE4005900B4
:00000001FF
